:030000000208D41F
:0C08D400787FE4F6D8FD75810A02091B4C
:070A1C0002090000010800BF
:1009BA001209DA1209601209F3120A1020B2061299
:1009CA000A03E4F50830B2F4120A0375080180EC50
:0C0A03007F027E677D93DDFEDEFCDFFAE3
:010A0F0022C4
:010A240022AF
:0C0A100075B102E4F5B2759301F5942273
:1009600075D904E4F5D875DA4275DB4275DC427559
:10097000DD42F5F9F5E9F5FAF5EAF5FBF5EBF5FCFD
:10098000F5ECF5FDF5ED75FA9075FB9075FC90753D
:05099000FD90D2DE2203
:1009DA00438E40438920759850758D88858D8B7517
:0909EA008780D2AFD2ACD28E227C
:1009F300438901758CFF758ADED2AFD2A9D28C22CE
:03000B00020800E8
:10080000C0E0C0D0050AE50A70020509D394F4E5FA
:100810000994014032E5086401702CF509F50AE5F8
:10082000FB94FF500405FB05FCE5FBD39440400816
:10083000E5FD94FF500205FDE5FDD394404008E539
:10084000FA94FF500205FAD3E50A94F4E5099401FD
:100850004077E5087073F509F50AE5FB9401400857
:10086000E5FB9423500215FBE5FBC394234006747B
:10087000FD25FBF5FBE5FAC394014008E5FA942356
:10088000500215FAE5FAC39423400674FD25FAF5E3
:10089000FAE5FCC394014008E5FC9423500215FCE2
:1008A000E5FCC39423400674FD25FCF5FCE5FDC37F
:1008B00094014008E5FD9423500215FDE5FDC39425
:1008C00023400674FD25FDF5FD758CFF758ADED08D
:0408D000D0D0E03272
:030023000209953A
:09099500C0E0C0D075D000C0071D
:10099E00309810C298AF99EF7004F508800775086B
:0509AE00018002C29966
:0709B300D007D0D0D0E032E4
:1008E0000209BAE493A3F8E493A34003F68001F26B
:1008F00008DFF48029E493A3F85407240CC8C33319
:10090000C4540F4420C8834004F456800146F6DFE7
:10091000E4800B0102040810204080900A1CE47E51
:10092000019360BCA3FF543F30E509541FFEE493DC
:10093000A360010ECF54C025E060A840B8E493A3A3
:10094000FAE493A3F8E493A3C8C582C8CAC583CACE
:10095000F0A3C8C582C8CAC583CADFE9DEE780BE86
:010A230000D2
:00000001FF
