:030000000203C92F
:0C03C900787FE4F6D8FD75812102041055
:10025F0075736520725B785D665B795D20746F20C6
:10026F00736574207269736520616E642066616CBA
:10027F006C2074696D652E0A20656163682074694E
:10028F006D6520686176652035206C6576656C73C9
:10029F002C20666F72206578616D706C652C200A5A
:1002AF0020696620796F752077616E7420746F20D6
:1002BF0073657420726973652074696D65206C6550
:1002CF0076656C203220616E642066616C6C2074E0
:1002DF00696D65206C6576656C20332C20757365B0
:1002EF003A20723266330A007265636F6E66696711
:1002FF0075726520726973652F66616C6C20746905
:10030F006D65210A00736574210A00696E76616C50
:10031F006964206C6576656C0A00696E76616C693C
:07032F006420636D640A0005
:10048A00020B000002090000020D00000115000223
:10049A002000010A16006400C801900258032001D6
:0804AA001001010F010108001F
:1003360012045512055B1205851204B37BFF7A027F
:10034600795F1204D27F007E0412051B8F107F0195
:100356007E0412051B8F0FAF10EFF4601DAF0FEF79
:10036600F46017AF10D3EF940474809480500BAFF1
:1003760010EF9404748094804006751001750F0187
:1003860020B207E4F520F5218006752000752101CD
:1003960020B31512056B20B30FE5216401452070CB
:1003A60003FF80027F018F1530B3D512056B30B382
:1003B600CFE5216401452070047F0180027F008F14
:0303C6001580BDE2
:0C056B007F027E677D93DDFEDEFCDFFA80
:010577002261
:0100220022BB
:07058500E4F5B175B20C2290
:1004550075D904E4F5D875DA4275DB4275DC427569
:10046500DD42F5F9F5E9F5FAF5EAF5FBF5EBF5FC0D
:10047500F5ECF5FDF5ED75FA9075FB9075FC90754D
:05048500FD90D2DE2213
:1004B30053877F759850438E40538EFE53890F4365
:0F04C3008920758BD9758DD9C2ABD28ED2AC2260
:080003008F993099FDC299228A
:1004D200C2AF1204EC6010F5993099FDC299740113
:0A04E20029F9E43AFA80EBD2AF22C8
:10050500E4FFEFC3940474809480500974112FF8AC
:05051500E4F60F80ED8B
:01051A0022BE
:10055B00438901758CFF758AEED2AFD2A9D28C225A
:03000B00020026CA
:10002600C0E0C0D075D000C000C006C007050CE512
:100036000C7002050B050AE50A70020509050EE5B6
:100046000E7002050DAF0FEF25E02416F8E6FE0848
:10005600E6FFD3E50A9FE5099E4037E5157033F5BF
:1000660009F50AAFFBEF94F974809480500605FBFE
:1000760005FB800675FBFF75F303AFFAC3EF94F932
:1000860074809480500605FA05FA800675FAFF75A5
:10009600F203AF10EF25E02416F8E6FE08E6FFD3DC
:1000A600E50C9FE50B9E5003020137E515640160E0
:1000B60003020137F50BF50CF5F3AFFBEF7004F512
:1000C600FB802BAFFBC3EF940174809480400FAF8D
:1000D600FBEF941374809480500415FB8010AFFBE3
:1000E600C3EF941374809480400415FB15FBAFFB9B
:1000F600C3EF944074809480503775F200AFFAEFE6
:100106007004F5FA802BAFFAC3EF940174809480E3
:10011600400FAFFAEF942374809480500415FA8050
:1001260010AFFAC3EF942374809480400415FA1537
:10013600FAD3E50E9410E50D94274006750D00756B
:100146000E00758CFF758AEED007D006D000D0D091
:03015600D0E032C4
:030023000201597E
:10015900C0E0C0F0C083C082C0D075D000C000C06C
:1001690001C002C003C004C005C006C0072098032F
:0301790002023F40
:10017C00C3E508940474809480500974112508F820
:10018C00A6990508C3E50894047480948050030272
:10019C00023D750800E51164726003020231E5133B
:1001AC0064666003020231AF12FEEF9431748094E6
:1001BC0080406AD3EF9435748094805060AF14C340
:1001CC00EF9431748094804054D3EF9435748094C0
:1001DC0080504AE51224CFFFB51008E51424CF65F2
:1001EC000F602A8F10E51424CFF50F7F007E0412C8
:1001FC000547AD107F007E04120531AD0F7F017EE7
:10020C00041205317BFF7A0279F71204D27BFF7A54
:10021C000379141204D27F0A12000380117BFF7A37
:10022C0003791A80067BFF7A0379291204D212050E
:03023C0005C29860
:10023F00309902C299D007D006D005D004D003D090
:10024F0002D001D000D0D0D082D083D0F0D0E03215
:10000E00AE071FEE600DE4FCFD0DED70010C4C60B3
:03001E00EF80F67A
:0100210022BC
:0D057800E4F5E7F5E5F5E675E380F5E4222E
:10051B0075E78475E5018FE48EE375E64675E6B9FC
:06052B0000AFE2020578BA
:1005310075E78475E5028FE48EE38DE275E6467515
:06054100E6B90002057896
:1005470075E78475E5038FE48EE375E64675E6B9CE
:040557000002057821
:1003D500020336E493A3F8E493A34003F68001F205
:1003E50008DFF48029E493A3F85407240CC8C33329
:1003F500C4540F4420C8834004F456800146F6DFF8
:10040500E4800B010204081020408090048AE47EF9
:10041500019360BCA3FF543F30E509541FFEE493EC
:10042500A360010ECF54C025E060A840B8E493A3B3
:10043500FAE493A3F8E493A3C8C582C8CAC583CADE
:10044500F0A3C8C582C8CAC583CADFE9DEE780BE96
:0104B2000049
:1004EC00BB010689828A83E0225002E722BBFE020E
:0904FC00E32289828A83E4932241
:00000001FF
